:020000040800F2
:100000000804002001010008BB05000835020008B3
:10001000B905000849010008B50600080000000005
:10002000000000000000000000000000D9050008EA
:100030004B01000800000000BD0500087106000823
:100040001B0100081B0100081B0100081B01000820
:100050001B0100081B0100081B0100081B01000810
:100060001B0100081B0100081B0100081B01000800
:100070001B0100081B0100081B0100081B010008F0
:100080001B0100081B0100081B0100081B010008E0
:100090001B0100081B0100081B0100081B010008D0
:1000A0001B0100081B0100081B0100081B010008C0
:1000B0001B0100081B0100081B0100081B010008B0
:1000C0001B0100081B0100081B0100081B010008A0
:1000D0001B0100081B0100081B0100081B01000890
:1000E0001B0100081B0100081B010008DFF80CD0F1
:1000F00000F018F800480047D50600080804002062
:100100000648804706480047FEE7FEE7FEE7FEE7B1
:10011000FEE7FEE7FEE7FEE7FEE7FEE775060008FE
:10012000ED000008064C074D06E0E06840F00103D2
:1001300094E8070098471034AC42F6D3FFF7DAFF93
:100140004407000864070008FEE7704708B504206C
:10015000ADF8000010208DF8030003208DF8020098
:100160006946024800F004F808BD00000014014090
:100170002DE9F041CB78002503F00F02DB0601D515
:100180008B781A430B884FF00F0813F0FF0F4FF0D6
:10019000010C1CD0D0F800400E880CFA05F31E406C
:1001A0009E4210D1AF0008FA07F624EA060602FACA
:1001B00007F43443CE78282E02D0482E02D002E035
:1001C000436100E003616D1C082DE5D304600B88DA
:1001D000FF2B1DD94468002505F108060CFA06F32B
:1001E0000E881E409E420FD1AF0008FA07F624EA9F
:1001F000060602FA07F43443CE78282E00D1436174
:10020000CE78482E00D103616D1C082DE4D34460E4
:10021000BDE8F0810246002092680A4200D0012029
:10022000704741617047016170470AB101617047D1
:1002300041617047FEE700002DE9F04101210820EF
:1002400000F0BEF90121102000F0BAF91E4C4FF663
:10025000FF7510262580E6700327A77021461B48EE
:10026000FFF786FF2580E670A77021461848FFF744
:100270007FFF1848401EFDD10021382000F07CF897
:10028000154D2C46641EFDD10021382000F074F875
:100290006D1EFDD10021382000F06EF801213820BC
:1002A00000F06AF80121082000F066F801210846F4
:1002B00000F062F80121062000F05EF8BDE8F04190
:1002C00001210C2000F058B800000020000C014073
:1002D00000100140FFFF0A00FFFF0100012310B5DD
:1002E0001A46012900DC002242EAD17242EAD072A9
:1002F0000F2800DC00231A4301D0002010BD002984
:100300004FF0010105D0C030C0B200F035F8012037
:1003100010BD8030F8E700002DE9F041134D4FF497
:1003200080712846FFF77DFF69152846FFF77BFFA0
:100330000F484FF47F410F4C01800421C1700146EA
:100340002046FFF715FF261531462846FFF76BFFBD
:10035000770139462046FFF75DFF0128F9D0314685
:100360002846BDE8F041FFF75CBF000000100140E7
:1003700000000020000C01402DE9F0470746002452
:1003800009B1FFF7C9FF2B4D4FF480794946284644
:10039000FFF747FF4FF4007A51462846FFF741FF29
:1003A00025484FF47F41DFF8948001801021C1700F
:1003B00001464046FFF7DCFE5FEA255627FA04F0C7
:1003C00000F00100012808D00022082C0DD2DFE83F
:1003D00004F00608202225282B2E0122F5E74946A5
:1003E00000E051464046FFF720FF641C082CE5DB87
:1003F00040F6FF773C46641EFDD131462846FFF7A4
:1004000012FF7F1EFDD131462846BDE8F047FFF7B9
:1004100008BF3146E6E74FF40061E3E74FF480514F
:10042000E0E74FF40051DDE74FF48041DAE74FF4A5
:100430000041D7E70010014000000020000C0140FF
:100440002DE9F04707460024FFF766FF2A4D4FF4D9
:10045000807949462846FFF7E6FE4FF4007A514678
:100460002846FFF7DEFE25484FF47F41DFF89080F5
:1004700001801021C17001464046FFF779FE2E151C
:1004800027FA04F000F00100012808D00022082C0F
:100490000DD2DFE804F00608202225282B2E0122A9
:1004A000F5E7494600E051464046FFF7BEFE641CB2
:1004B000082CE5DB40F6FF773C46641EFDD1314653
:1004C0002846FFF7B0FE7F1EFDD131462846BDE825
:1004D000F047FFF7A6BE3146E6E74FF40061E3E7D9
:1004E0004FF48051E0E74FF40051DDE74FF48041D5
:1004F000DAE74FF40041D7E7001001400000002088
:10050000000C01407CB514460025FFF7E7FE0028EB
:100510003DD0002C03DA2D20FFF792FF644242F217
:10052000107194FBF1F08DF8040001FB10404FF4C2
:100530007A7290FBF2F102FB11008DF80310642235
:1005400090FBF2F102FB11000A228DF8021090FBE1
:10055000F2F102FB11008DF801108DF80000052466
:100560006E46301910F8010C28B13030C0B2FFF7D8
:1005700067FF012507E0012C0AD00020284302D0A4
:100580003020FFF75DFF641E002CEADC01207CBDFB
:100590000120F3E710B51446FFF7A0FE00280AD0AB
:1005A00004E000BF14F8010CFFF74AFF14F8010B38
:1005B0000028F7D1012010BDFEE77047704700000A
:1005C000044A0029916901D0014300E0814391610F
:1005D00070470000001002407047000022480021D0
:1005E000026842F4803202604FF4A063026801F1B5
:1005F000010112F4003F01D19942F7D1016889034A
:1006000030D51A490A6842F010020A600A6822F0DE
:1006100003020A600A6842F002020A60416841600F
:1006200041684160416841F480614160416821F462
:100630007C114160416841F4E8114160016841F07A
:100640008071016001688901FCD5416821F00301D6
:100650004160416841F0020141604168C1F381019C
:100660000229FAD170470000001002400020024029
:10067000704700000C48016841F0010101604168C9
:100680000A4A114041600168094A1140016001684D
:1006900021F480210160416821F4FE0141604FF4A2
:1006A0001F018160FFF79ABF001002400000FFF8B1
:1006B000FFFFF6FEFEE702E008C8121F08C1002A8D
:1006C000FAD170477047002001E001C1121F002AD3
:1006D000FBD17047002501212020FFF771FFFFF7B4
:1006E00035FDFFF7A9FD00210FA20846FFF752FFD5
:1006F00010A201210020FFF74DFF104E104C0421E5
:100700003046FFF790FD2046401EFDD104213046C3
:10071000FFF787FD2046401EFDD16D1C2A460121B2
:100720000420FFF7EFFEEAE748656C6C6F2C576A10
:100730007021000057747700000000000014014091
:10074000FFFF0A006407000800000020040000000A
:10075000B606000868070008040000200404000032
:08076000C606000800000000BD
:04000005080000ED02
:00000001FF
